:101F8D0000FF007E8181817E0000000000000000C6
:101F9D000000000000000000000000000000000034
:101FAD000000000000000000000000000000000024
:101FBD000000000000000000000000000000000014
:101FCD0000000000000000000079898989897E00E9
:101FDD0000000000000000000000000000000000F4
:101FED0000000000000000000000000000000000E4
:101FFD0000000000000000000000000000000000D4
:10200D0000000000000000000000000000000000C3
:10201D000036494949493600000000000000000023
:10202D0000000000000000000000000000000000A3
:10203D000000000000000000000000000000000093
:10204D000000000000000000000000000000000083
:10205D000000000000000000008080808080FF00F4
:10206D000000000000000000000000000000000063
:10207D000000000000000000000000000000000053
:10208D000000000000000000000000000000000043
:10209D000000000000000000000000000000000033
:1020AD00000E113151910E000000000000000000E3
:1020BD000000000000000000000000000000000013
:1020CD000000000000000000000000000000000003
:1020DD0000000000000000000000000000000000F3
:1020ED0000000000000000000000F98989898F00C0
:1020FD0000000000000000000000000000000000D3
:10210D0000000000000000000000000000000000C2
:10211D0000000000000000000000000000000000B2
:10212D0000000000000000000000000000000000A2
:10213D0000F8080808FF080000000000000000007B
:10214D000000000000000000000000000000000082
:10215D000000000000000000000000000000000072
:10216D000000000000000000000000000000000062
:10217D000000000000000000008989898989FF00A6
:10218D00009F91919191F10000000000000000006E
:10219D000000000000000000000000000000000032
:1021AD000000000000000000000000000000000022
:1021BD000000000000000000000000000000000012
:1021CD000000000000000000000000FF0000000003
:1021DD0000000000000000000000000000000000F2
:1021ED0000000000000000000000000000000000E2
:1021FD0000000000000000000000000000000000D2
:10220D0000FF000E1121518E0000000000000000A3
:10221D0000000000000000000000000000000000B1
:10222D0000000000000000000000000000000000A1
:10223D000000000000000000000000000000000091
:10224D003E41413E3049493E000000000000000083
:10225D000000000000000000000000000000000071
:10226D000000000000000000000000000000000061
:10227D000000000000000000000000000000000051
:10228D000000000000000000000000000000000041
:10229D000000000000000000000000000000000031
:1022AD000000000000000000000000000000000021
:1022BD000000000000000000000000000000000011
:1022CD000000000000000000000000000000000001
:1022DD0000000000000000000000000000000000F1
:1022ED0000000000000000000000000000000000E1
:1022FD0000000000000000000000000000000000D1
:103EC000E49002F0F07F107E271242CA7F107E2716
:103ED0001242CA7F107E271242CA7F107E271242EA
:103EE000CAE4FF9002F0E075F040A4248DF582E56D
:103EF000F0341FF583E5822FF582E43583F583E402
:103F000093FE74222FF582E43402F583EEF00FEF76
:103F1000B440D012260D9002F0E004F0E0C3940EFD
:023F200040A3BC
:013F2200227C
:10260D00E4FFE49002F1F09002F1E0FEC394085073
:10261D0022EF75F008A42462F582E43402F583E517
:10262D00822EF582E43583F583E4F09002F1E00427
:10263D00F080D40FEFB408CAE49002F1F0E4FF90FB
:10264D0002F1E0FE75F008A42462F582E43402F58F
:10265D0083C083C082E0FD74222FF582E43402F53D
:10266D0083E0FCA806088002C313D8FC5401FEC306
:10267D0074079FFCEEA804088002C333D8FC4DD02C
:10268D0082D083F09002F1E0FE75F008A42463F58A
:10269D0082E43402F583C083C082E0FD742A2FF5F5
:1026AD0082E43402F583E0FCA806088002C313D847
:1026BD00FC5401FEC374079FFCEEA804088002C3FE
:1026CD0033D8FC4DD082D083F09002F1E0FE75F04E
:1026DD0008A42464F582E43402F583C083C082E04B
:1026ED00FD74322FF582E43402F583E0FCA8060870
:1026FD008002C313D8FC5401FEC374079FFCEEA8DF
:10270D0004088002C333D8FC4DD082D083F09002F0
:10271D00F1E0FE75F008A42465F582E43402F5833A
:10272D00C083C082E0FD743A2FF582E43402F58354
:10273D00E0FCA806088002C313D8FC5401FEC37444
:10274D00079FFCEEA804088002C333D8FC4DD0824D
:10275D00D083F09002F1E0FE75F008A42466F582B6
:10276D00E43402F583C083C082E0FD74422FF5820C
:10277D00E43402F583E0FCA806088002C313D8FCFC
:10278D005401FEC374079FFCEEA804088002C333F6
:10279D00D8FC4DD082D083F09002F1E0FE75F008A8
:1027AD00A42467F582E43402F583C083C082E0FD82
:1027BD00744A2FF582E43402F583E0FCA806088004
:1027CD0002C313D8FC5401FEC374079FFCEEA8048A
:1027DD00088002C333D8FC4DD082D083F09002F133
:1027ED00E0FE75F008A42468F582E43402F583C098
:1027FD0083C082E0FD74522FF582E43402F583E04C
:10280D00FCA806088002C313D8FC5401FEC374074C
:10281D009FFCEEA804088002C333D8FC4DD082D0B3
:10282D0083F09002F1E0FE75F008A42469F582E4CE
:10283D003402F583C083C082E0FD745A2FF582E423
:10284D003402F583E0FCA806088002C313D8FC54BB
:10285D0001FEC374079FFCEEA804088002C333D8A1
:10286D00FC4DD082D083F00FEF6408600302264C3C
:10287D009002F1E004F0E06408600302264AE4FFF0
:10288D00124294C28CE4FFE49002F1F09002F1E068
:10289D00FEEF75F008A42462F582E43402F583E5B9
:1028AD00822EF582E43583F583E0FDC374079F75B1
:1028BD00F008A424A8F582E43402F583E5822EF510
:1028CD0082E43583F583EDF09002F1E004F0E0B49D
:0928DD0008BA0FEFB408B0D28C68
:0128E60022CF
:102DA90000060C12181E242A30363B41464B50555A
:102DB900595E6266696C70727577797B7C7D7E7EFF
:102DC9007E7E7E7D7C7B79777572706C6966625ECA
:102DD9005955504B46413B36302A241E18120C06D1
:102DE90000FAF4EEE8E2DCD6D0CAC5BFBAB5B0AB9A
:102DF900A7A29E9A9794908E8B89878584838282D5
:102E090082828283848587898B8E9094979A9EA2E9
:102E1900A7ABB0B5BABFC5CAD0D6DCE2E8EEF4FAC2
:102E29007F7E7E7D7C7B79777572706C6966625E68
:102E39005955504B46413B36302A241E18120C0670
:102E490000FAF4EEE8E2DCD6D0CAC5BFBAB5B0AB39
:102E5900A7A29E9A9794908E8B8987858483828274
:102E690082828283848587898B8E9094979A9EA289
:102E7900A7ABB0B5BABFC5CAD0D6DCE2E8EEF4FA62
:102E890000060C12181E242A30363B41464B505579
:102E9900595E6266696C70727577797B7C7D7E7E1E
:102EA9000040206010503070084828681858387859
:102EB90004442464145434740C4C2C6C1C5C3C7C09
:102EC90002422262125232720A4A2A6A1A5A3A7A19
:102ED90006462666165636760E4E2E6E1E5E3E7EC9
:102EE9000141216111513171094929691959397909
:102EF90005452565155535750D4D2D6D1D5D3D7DB9
:102F090003432363135333730B4B2B6B1B5B3B7BC8
:102F190007472767175737770F4F2F6F1F5F3F7F78
:103F71004102190041021A0041021B0041011600D1
:103F810041021C00420000000042021D00004201EB
:0D3F9100140000420217000042011200005F
:1016CB009002197401F0900219E0FFD394074003C4
:1016DB00021A479001167401F0E0FEEF14FFEEA81A
:1016EB0007088002C333D8FC900116F0E490021A6D
:1016FB00F0900116E014FF90021AE0D39F40030212
:10170B001A3E90021C7401F0E0FF900219E0FEC338
:10171B0074079EFEEFA806088002C333D8FCFF9027
:10172B00021CF090021AE0FEEF8EF0A490021CF067
:10173B0090021BEEF090021BE0C394804003021A50
:10174B0035E0FF25E02402F582E43400F583E0FD6B
:10175B00A3E0900000CDF0A3EDF0EF25E02417F50A
:10176B0082E43401F583E0FFA3E090021DCFF0A3E8
:10177B00EFF0900116E0FF90021BE02FF925E0241B
:10178B0002F582E43400F583E0FCA3E0FD90011444
:10179B00ECF0A3EDF090021CE0902E2993FF339513
:1017AB00E0FE123AE2EF7807CEA2E713CE13D8F899
:1017BB00FF90021BE025E02402F582E43400F58360
:1017CB00E0FCA3E02FFBEC3EFAE925E02417F582C1
:1017DB00E43401F583E0FCA3E0FD90021CE0902DC6
:1017EB00A993FF3395E0FE123AE2EF7807CEA2E71A
:1017FB0013CE13D8F82BFFEA3EFE90021BE0FB251D
:10180B00E02402F582E43400F583EEF0A3EFF0E977
:10181B0025E02402F582E43400F583E0FCA3E0FD2F
:10182B0090021CE0902DA993FF3395E0FE123AE253
:10183B00EF7807CEA2E713CE13D8F8FFEB25E02401
:10184B0017F582E43401F583E0FCA3E0C39FFBECC6
:10185B009EFAE925E02417F582E43401F583E0FCD8
:10186B00A3E0FD90021CE0902E2993FF3395E0FE40
:10187B00123AE2EF7807CEA2E713CE13D8F82BFF7C
:10188B00EA3EFE90021BE025E02417F582E43401CA
:10189B00F583EEF0A3EFF0E925E02402F582E434C2
:1018AB0000F583E0FCA3E0FD90021CE0902E299351
:1018BB00FF3395E0FE123AE2EF7807CEA2E713CEA4
:1018CB0013D8F8FFC3900001E09FFB900000E09E4F
:1018DB00FAE925E02417F582E43401F583E0FCA353
:1018EB00E0FD90021CE0902DA993FF3395E0FE12D2
:1018FB003AE2EF7807CEA2E713CE13D8F8FFC3EB8B
:10190B009FFFEA9EFEE925E02402F582E43400F510
:10191B0083EEF0A3EFF090021CE0902DA993FF3320
:10192B0095E0FE900114E0FCA3E0FD123AE2EF78A3
:10193B0007CEA2E713CE13D8F8FF90021EE02FFBC1
:10194B0090021DE03EFAE925E02417F582E434010C
:10195B00F583E0FCA3E0FD90021CE0902E2993FFA1
:10196B003395E0FE123AE2EF7807CEA2E713CE13DF
:10197B00D8F8FFC3EB9FFFEA9EFEE925E02417F59D
:10198B0082E43401F583EEF0A3EFF090021BE0FD4F
:10199B0025E02402F582E43400F583C083C082E0A5
:1019AB00A2E713FFA3E013D082D083CFF0A3EFF015
:1019BB00ED25E02417F582E43401F583C083C08262
:1019CB00E0A2E713FFA3E013D082D083CFF0A3EF05
:1019DB00F0900116E0FD90021BE02DFC25E02402A7
:1019EB00F582E43400F583C083C082E0A2E713FFE5
:1019FB00A3E013D082D083CFF0A3EFF0EC25E0244B
:101A0B0017F582E43401F583C083C082E0A2E713AB
:101A1B00FFA3E013D082D083CFF0A3EFF0ED25E04E
:101A2B00FF90021BE02FF002174090021AE004F027
:101A3B000216FC900219E004F00216D1E490021A8F
:101A4B00F090021AE0F9C394104003021AEDE92555
:101A5B00E02419F582E43401F583E0FCA3E0FDFFFB
:101A6B00AE04123AE2AA06AB07E925E02404F5829C
:101A7B00E43400F583E0FCA3E0FDFFAE04123AE290
:101A8B00EF2BFFEE3AA2E713FEEF13FF900217EED8
:101A9B00F0A3EFF0C39401EE94005007E49002170B
:101AAB00F0A3F0900217A3E0FF90021AE0FE2402CD
:101ABB00F582E43401F583EFF074022EF582E43401
:101ACB0001F583E0FF7E00C3900113E09F900112AC
:101ADB00E09E5005EEF0A3EFF090021AE004F00246
:101AEB001A4C900112E0FEA3E0FFD39410EE940089
:101AFB00404CEEC4F854F0C868FEEFC4540F48FFD6
:101B0B00900112EEF0A3EFF0E490021AF090021A9B
:101B1B00E0FFC39410502774022FF582E43401F5D3
:101B2B0083C083C082E0FF900112A3E0FEEF8EF032
:0F1B3B0084D082D083F090021AE004F080CF2291
:10320E005151514A4A4A4444181C18181818183C6F
:10321E003C666630180C06F63C6660386060663CAC
:10322E0030383C3E367E30303C3C181818183C3C4A
:10323E0066FFFFFF7E3C18186666666666667E3C15
:10324E0081FF8100FF81817E00FF898900F8272799
:10325E00F8008F8989F900FF8181FF00FF090909B4
:10326E0001000101FF0101000020406080A0C0E0CC
:10327E00E4E8ECF0F4F8FCDCBC9C7C5C3C1C181420
:10328E00100C080425456585A5C5C9CDD1D5D9B97C
:10329E009979593935312D294A6A8AAAAEB2B6962C
:1032AE007656524E6F8F93736F8F93734A6A8AAAB4
:1032BE00AEB2B6967656524E25456585A5C5C9CD94
:1032CE00D1D5D9B99979593935312D290020406098
:1032DE0080A0C0E0E4E8ECF0F4F8FCDCBC9C7C5C84
:1032EE003C1C1814100C08040020406080A0C0E0A4
:1032FE00E4E8ECF0F4F8FCDCBC9C7C5C3C1C1814A0
:10330E00100C080400010203040506162636465664
:10331E00666564636261605040302010FF89F593EA
:10332E0093F589FF0E1F3F7E7E3F1F0E183C7EFFDA
:10333E0018181818000102230506070605230201B6
:01334E00007E
:0342DE00A3E0FF5B
:1042E100EF75F00A84FE75F00AA4FDC3EF9DC39437
:0642F1000540010EAF06BE
:0142F70022A4
:0D000E00C3EF648094805004EFF404FF22DF
:0B40CA00900308EBF0A3EAF0A3E9F07C
:1040D500A3E0FBA3E0FAA3E0F9123AB7FF900308C7
:1040E500E0FBA3E0FAA3E0F9123AB7FED39F401331
:1040F500EF123AD090030BE0FBA3E0FAA3E0F9EE50
:03410500123AD09B
:014108002294
:0F432500EFC39D5002AF05EFC39B5002AF0322C1
:10429400E4FEE4FDEE75F008A424A8F582E43402FB
:1042A400F583E5822DF582E43583F583EFF00DED9A
:0842B400B408E10EEEB408DAD3
:0142BC0022DF
:103E56007401A807088002C333D8FC90031AF0F453
:103E6600A3F0900319E06027EB75F008A424A8F5E9
:103E760082E43402F583E5822DF582E43583F58309
:103E8600C083C082E0FF90031AE0FEEF4E8025EB70
:103E960075F008A424A8F582E43402F583E5822DA2
:103EA600F582E43583F583C083C082E0FF90031B6F
:093EB600E0FEEF5ED082D083F043
:013EBF0022E0
:083DE800EF24FEFF7B01E4FD66
:023DF000A90325
:103DF200EFFB3395E0FAC3EB9480EA648094805041
:103E0200047E0180027E00C3EF6480948040047BC4
:103E12000180027B00EE5B603AED6007C3747F9F16
:103E2200FC8002AC07EC90327693FEC4135407FD7B
:103E3200EE13135407FEEC935403FBD3EF64809408
:103E4200BF400474079BFBAF05AD06900319E9F070
:033E5200123E56C7
:013E5500224A
:102C19009002F1E0FB24F2F582E43402F583E0FE50
:102C290075F01C849002FCE5F0F0E09032F693FD1B
:102C3900C41354079002FAF0FAED13135407A3F0E2
:102C4900EE24F2FFE434FFFE7C007D1C123AF4A36B
:102C5900EDF0E09032F693FFC4135407FE9002FDA5
:102C6900F0EF13135407A3F0FCAF029002FBE0FD51
:102C790090030BEEF0A3ECF09002F1E090030DF05D
:042C8900A37401F03F
:062C8D00A907AC03AA0533
:102C930090030BE0C399FF900313F090030CE0C380
:102CA3009A900314F090030DE0C39C900315F01267
:102CB300000EAE07900314E0FF12000EAD07A3E071
:102CC300FF12000EAB07AF0612432590030FEFF080
:102CD300E975F00AA4A3F0EA75F00AA4A3F0EC7571
:102CE300F00AA4A3F0A3E0FF3395E0FE7C007D0A85
:102CF300123AE290030FE0FB3395E0FAAD03FC12C6
:102D03003B49900313EFF0A3E0FF3395E0FE7C0013
:102D13007D0A123AE2AD03AC02123B49EFF0A3E0A5
:102D2300FF3395E0FE7C007D0A123AE290030FE048
:102D3300FD3395E0FC123B49900315EFF0E4FA9064
:102D4300030FE0C36480F8EA64809850451242DEC2
:102D5300C0071242DEAC07A3E0FF1242E1AB0790CB
:102D6300030EE0900319F0AD04D007123E56900312
:102D730013E0FF900310E02FF0900314E0FF9003A3
:102D830011E02FF0900315E0FF900312E02FF00AFB
:102D930080AD90030BE0FFA3E0FDA3E0FBA3E09075
:062DA3000319F0023E5688
:10124500E4FF1242949003027401F0A37407F0A323
:0B125500F0A37401F0A3F07B067D06FF
:0B1260009002FFEFF0A3EDF0A3EBF015
:10126B00E4900307F07B0190030B04F0A37403F0ED
:10127B00A37402F07A0279FF1240CA90030B740137
:10128B00F0A37403F0A37403F07B017A03790012CB
:10129B0040CA90030B7401F0A37403F0A37404F021
:1012AB007B017A0379011240CA9002FFE0FF9003A1
:1012BB0002E0FEEFD39E5018900307E0FE7401A8E6
:1012CB0007088002C333D8FC4E900307F00F80DE73
:1012DB00900306E0FE7004A3E0F4F0900305E070C9
:1012EB0003021394EE6051900301E0FF900304E0BE
:1012FB00FEEFD39E40030216CA900300E0FC90035E
:10130B0003E0FEECD39E502DEC75F008A424A8F559
:10131B0082E43402F583E5822FF582E43583F5838D
:10132B00C083C082E0FE900307E0FDEE4DD082D07B
:10133B0083F00C80C90F80B4900301E0FF9003048D
:10134B00E0FEEFD39E40030216CA900300E0FC9030
:10135B000303E0FEECD39E502DEC75F008A424A8FB
:10136B00F582E43402F583E5822FF582E43583F5CB
:10137B0083C083C082E0FE900307E0FDEE5DD08268
:10138B00D083F00C80C90F80B4900306E09003016A
:10139B007003021463E0FE900300E075F008A424D0
:1013AB00A8F582E43402F583E5822EF582E43583D9
:1013BB00F583C083C082E0FE900307E0FDEE4DD0C5
:1013CB0082D083F0900301E0FE900303E075F008F8
:1013DB00A424A8F582E43402F583E5822EF582E499
:1013EB003583F583C083C082E0FE900307E0FDEEFA
:1013FB004DD082D083F0900304E0FE900300E075A3
:10140B00F008A424A8F582E43402F583E5822EF5D6
:10141B0082E43583F583C083C082E0FE900307E04E
:10142B00FDEE4DD082D083F0900304E0FE900303D9
:10143B00E075F008A424A8F582E43402F583E58274
:10144B002EF582E43583F583C083C082E0FE9003E2
:10145B0007E0FDEE4D021523E0FE900300E075F072
:10146B0008A424A8F582E43402F583E5822EF582E4
:10147B00E43583F583C083C082E0FE900307E0FD73
:10148B00EE5DD082D083F0900301E0FE900303E089
:10149B0075F008A424A8F582E43402F583E5822EC6
:1014AB00F582E43583F583C083C082E0FE900307A9
:1014BB00E0FDEE5DD082D083F0900304E0FE90035C
:1014CB0000E075F008A424A8F582E43402F583E566
:1014DB00822EF582E43583F583C083C082E0FE90D3
:1014EB000307E0FDEE5DD082D083F0900304E0FEB5
:1014FB00900303E075F008A424A8F582E43402F508
:10150B0083E5822EF582E43583F583C083C082E0C8
:10151B00FE900307E0FDEE5DD082D083F0900302D6
:10152B00E0FE7401A806088002C333D8FCFE9002CB
:10153B00FFE0FD7401A805088002C333D8FC4E9070
:10154B000307F0900306E0FE7004A3E0F4F0EE70E6
:10155B0003021616900301E0FC900304E0FEECD3AB
:10156B009E504B900300E0FF900303E0FEEFD39EF1
:10157B00502DEF75F008A424A8F582E43402F5830E
:10158B00E5822CF582E43583F583C083C082E0FECF
:10159B00900307E0FDEE4DD082D083F00F80C99011
:1015AB000301E0FE900304E0C39E2CFC80AB900390
:1015BB0000E0FC900303E0FEECD39E40030216CA4E
:1015CB00900301E0FF900304E0FEEFD39E502DEC5F
:1015DB0075F008A424A8F582E43402F583E5822F84
:1015EB00F582E43583F583C083C082E0FE90030768
:1015FB00E0FDEE4DD082D083F00F80C9900300E068
:10160B00FE900303E0C39E2CFC80A8900301E0FC3A
:10161B00900304E0FEECD39E504B900300E0FF9050
:10162B000303E0FEEFD39E502DEF75F008A424A822
:10163B00F582E43402F583E5822CF582E43583F5FB
:10164B0083C083C082E0FE900307E0FDEE5DD08295
:10165B00D083F00F80C9900301E0FE900304E0C338
:10166B009E2CFC80AB900300E0FC900303E0FEECAF
:10167B00D39E504B900301E0FF900304E0FEEFD3A9
:10168B009E502DEC75F008A424A8F582E43402F5E5
:10169B0083E5822FF582E43583F583C083C082E036
:1016AB00FE900307E0FDEE5DD082D083F00F80C982
:0F16BB00900300E0FE900303E0C39E2CFC80AB85
:0116CA0022FD
:10334F009002F3E024F4F58274023CF583E0FD90E3
:10335F0002F3E0FBC374079BFE900302F0A3EDF0B2
:09336F00A3EEF0E4A3F0A304F0C6
:0B3378009002FFEFF0A3EDF0A3EBF0DC
:1033830090030B7401F0A37403F0A37404F07B01A6
:103393007A0379011240CA900305E0604B90030160
:1033A300E0900307F0900304E0FF900307E0D39F4E
:1033B300400302348B9002FFE0FFA3E0FD9003077C
:1033C300E0FB900302E090030BF0900303E0900313
:1033D3000CF0A3EBF0900306E090030EF0122C8D9B
:1033E300900307E004F080BD9002FFE0FFA3E0FD3F
:1033F300A3E0FBA3E090030BF0900303E090030C26
:10340300F0A3EBF0900306E090030EF0122C8D90E6
:1034130002FFE0FFA3E0FD900304E0FB900302E062
:1034230090030BF0900303E090030CF0A3EBF090F8
:103433000306E090030EF0122C8D900302E0FFA32D
:10344300E0FD900301E0FB90030BEFF0A3EDF090A0
:103453000304E090030DF0900306E090030EF012D6
:103463002C8D9002FFE0FFA3E0FDA3E0FB90030B94
:10347300EFF0A3EDF0900304E090030DF09003064A
:08348300E090030EF0122C8D05
:01348B00221E
:0637E4007D107C277F012F
:0837EA009002F4ECF0A3EDF0F5
:1037F200EF70030238BB24FE604B1470030238865C
:10380200240260030238EDE49002F6F09002F6E042
:10381200FFC3940740030238EDEF75F008A424AF0C
:10382200F582E43402F583E4F0C374069FFFE49466
:1038320000FE74E02FF58274023E1242BD9002F641
:10384200E004F080C7E49002F6F09002F6E0FFFD9B
:10385200C374079DFDE49400FC74E02DF5827402AC
:103862003CF583E4F0C374069F75F008A424A8F520
:1038720082E434021242BD9002F6E004F0E0C39406
:103882000740C722E49002F6F09002F6E0FFC3740C
:10389200079F75F008A424A8F582E43402F583E4B6
:1038A200F074A92FF582E434021242BD9002F6E0D0
:1038B20004F0E0C3940740D122E49002F6F09002B3
:1038C200F6E0FFC39407502374A82FF582E4340274
:1038D200F583E4F0EF75F008A424B7F582E434022E
:0B38E2001242BD9002F6E004F080D31B
:0138ED0022B8
:062F29007D107C277F01F2
:082F2F009002FFECF0A3EDF0AD
:102F3700EF700302304A24FE6059147003022FF029
:102F47002402600302309BE4900301F0900301E048
:102F5700FDE490030BF0A3EDF0A37407F0E4A3F0F6
:102F6700FBFF122C8D900301E004FF90030BF0A3ED
:102F77007407F0A3F0A37401F0E4FB7D07122C8D16
:102F87009002FF1242C5900301E004F0E0C39407EA
:102F970040BA22E4900301F0900301E0FFC39407D5
:102FA700400302309B90030BEFF0A37407F0A3F0EC
:102FB700E4A3F0FB7D07122C8D900301E0FFC3749F
:102FC700069FFD90030B7407F0A3EDF0A37407F0C1
:102FD700A37401F0E4FB7F07122C8D9002FF1242CD
:102FE700C5900301E004F080AFE4900301F0900383
:102FF70001E0FFC39407400302309BC374079FFDA2
:1030070090030B7407F0A3EDF0A37407F0E4A3F0AB
:10301700FB7F07122C8D900301E0FFC374069FFF0F
:1030270090030BF0E4A3F0A37407F0A37401F0E49A
:10303700FBFD122C8D9002FF1242C5900301E004A4
:10304700F080ABE4900301F0900301E0FFC3940725
:103057005042C374079FFF90030BF0E4A3F0A374DF
:1030670007F0E4A3F0FBFD122C8D900301E004FDB3
:10307700E490030BF0A3EDF0A37407F0A37401F041
:10308700E4FBFF122C8D9002FF1242C5900301E072
:0430970004F080B40D
:01309B002212
:0A28E7009002F1E0FCA3E0FD7F0188
:0828F1009002F3ECF0A3EDF0FE
:1028F900EF7003022A2724FE60691470030229C9B4
:1029090024026003022A87E49002F5F09002F5E0C0
:10291900FD9003027407F0C39DA3F0A37407F0A30D
:102929007401F0A3F0E4FBFF1233789002F3124232
:10293900C59002F5E0FFC39407501BE4900302F031
:10294900A3EFF0A37407F0A37401F0E4A3F0FB7DF7
:10295900037F031233789002F5E004F0E0C3940892
:1029690040AA22E49002F5F09002F5E0FEC3740754
:102979009EFF900302EEF0A37407F0A3F0A3740185
:10298900F0A3F0E4FBFD1233789002F31242C590F4
:1029990002F5E0FFC39407501A900302EFF0A37405
:1029A90007F0A3F0A37401F0E4A3F0FB7D047F0317
:1029B9001233789002F5E004F0E0C3940840A922AC
:1029C900E49002F5F09002F5E0FD9003027407F03F
:1029D900C39DA3F0A37407F0A37401F0A3F0E4FB73
:1029E900FF1233789002F31242C59002F5E0FFC35B
:1029F9009407501D9003027407F0C39FA3F0A374BA
:102A090007F0A37401F0E4A3F0FB7D047F04123303
:102A1900789002F5E004F0E0C3940840A822E4901D
:102A290002F5F09002F5E0FEC374079EFF900302E1
:102A3900EEF0A37407F0A3F0A37401F0A3F0E4FB94
:102A4900FD1233789002F31242C59002F5E0FFC3FC
:102A59009407501EC374079F900302F0E4A3F0A3E8
:102A69007407F0A37401F0E4A3F0FB7D037F041263
:0E2A790033789002F5E004F0E0C3940840A525
:012A8700222C
:0B3FB8009002F4EFF0A3ECF0A3EDF09A
:103FC300E4A3F0E4FF9002F4E075F008A424A8F55C
:103FD30082E43402F583E5822FF582E43583F583A9
:103FE300E0C313F00FEFB408DC9002F51242C59062
:0B3FF30002F7E004F0E0C3940840C8AF
:013FFE0022A0
:0B348C009002F1EFF0A3ECF0A3EDF0D4
:10349700E49002F6F09002F4F09002F4E0FFC39497
:1034A7000840030235B4EFC394075019EF04FF90A7
:1034B7000302F0A37407F0A3F0A37401F0A3F0E4F0
:1034C700FBFD1233789002F6E0FF900302F0A3743D
:1034D70007F0A3F0A37401F0E4A3F0FBFD12337827
:1034E700E49002F5F09002F4E0049002F6F0E4FCB8
:1034F7009002F4E0FEECD39E5017AF047401A807C6
:10350700088002C333D8FCFE9002F5E04EF00C8031
:10351700DFE4FFEF75F008A424ABF582E43402F58D
:1035270083C083C082E0FE9002F1E075F008A42416
:103537000EF582E43432F583E5822FF582E4358394
:10354700F583E493FD9002F5E0FCED5CFDEE4DD0D4
:1035570082D083F0EF75F008A424ACF582E434023E
:10356700F583C083C082E0FE9002F1E075F008A405
:10357700240EF582E43432F583E5822FF582E435B3
:1035870083F583E493FD9002F5E0FCED5CFDEE4DE1
:10359700D082D083F00FEF6408600302351A9002DF
:0D35A700F21242C59002F4E004F00234A0DC
:0135B40022F4
:10426900E4FFE4FEEF75F008A424A8F582E4340223
:10427900F583E5822EF582E43583F583E025E0F0C8
:0A4289000EEEB408DF0FEFB408D802
:014293002208
:1039EF009002F07481F09002F0E0FFD39400401E3B
:1039FF00123DE87F407E1F1242CA9002F0E014FF92
:103A0F00E4FBFD123DF09002F0E014F080D87F400F
:103A1F007E1F1242CAE49002F0F09002F0E0FFC362
:103A2F00948850247B017D01123DF07F407E1F1250
:103A3F0042CA9002F0E024F8FFE4FB7D01123DF052
:103A4F009002F0E004F080D27F407E1F1242CA90B5
:103A5F0002F07481F09002F0E0FFD3940040121254
:103A6F003DE87F407E1F1242CA9002F0E014F080C2
:103A7F00E47F407E1F1242CAE49002F0F09002F001
:103A8F00E0FFC39480501AEF24F8FFE4FB7D01128E
:103A9F003DF07F407E1F1242CA9002F0E004F0809A
:083AAF00DC7F607EEA0242CADE
:1035B500E49002F0F09002F0E0FD9003027407F051
:1035C500A3EDF0A37407F0A37401F0A3F0E4FBFFEF
:1035D5001233787F207E4E1242CA9002F0E0C36417
:1035E500809487501BE0FD9003027407F0A3EDF073
:1035F500A37407F0A37401F0E4A3F0FBFF12337882
:103605009002F0E004F0E0C36480948840A7900243
:10361500F07407F09002F0E0FD9003027407F0A348
:10362500EDF0A37407F0A37401F0A3F0E4FBFF121F
:1036350033787F207E4E1242CA9002F0E0D3648038
:103645009480401BE0FD9003027407F0A3EDF0A306
:103655007407F0A37401F0E4A3F0FBFF1233789034
:1036650002F0E014F0E0C36480948050A7E4900277
:10367500F0F09002F0E0FD9003027407F0A3EDF086
:10368500A37407F0A37401F0A3F0E4FBFF123378F1
:103695007F207E4E1242CA9002F0E0C36480948778
:1036A500501BE0FD9003027407F0A3EDF0A374072F
:1036B500F0A37401F0E4A3F0FBFF1233789002F05D
:0B36C500E004F0E0C36480948840A79C
:0136D00022D7
:10230D009002F17407F09002F1E0FFC36480948FA6
:10231D00501AEFFD3395E0FC74EB2DF58274023C01
:10232D00F583EFF09002F1E004F080DAE49002F032
:10233D00F0E49002F1F09002F1E0FFC36480948824
:10234D005068EF3395E0FE74F22FF58274023EF57E
:10235D0083E0FFC36480948040047E0180027E0090
:10236D00C3EF6480948850047F0180027F00EF5E8C
:10237D0060309002F1E0FBFF3395E0FE74F22FF533
:10238D008274023EF583E0FD90030B7407F0A3ED1C
:10239D00F09002F1E090030DF0A37401F0E4FF1250
:1023AD002C8D9002F1E004F0808CE49002F1F0901D
:1023BD0002F1E0FFC3648094885078EF3395E0FE1E
:1023CD0074F22FF58274023EF583E0FFFD3395E044
:1023DD00FCED2401FDE43CFCC3ED9408EC64809419
:1023ED008050047E0180027E00C3EF6480948040A3
:1023FD00047F0180027F00EE5F602F9002F1E0FB11
:10240D00FF3395E0FE74F22FF58274023EF583E002
:10241D0004FD90030B7407F0A3EDF09002F1E09032
:10242D00030DF0E4A3F0FF122C8D9002F1E004F007
:10243D000223BCE49002F1F09002F1E0FFC364804E
:10244D009488502CEF3395E0FE74F22FF5827402D0
:10245D003EF583E0D364809480400D74F22FF582B5
:10246D0074023EF583E014F09002F1E004F080C8B0
:10247D007F987E3A1242CA9002F0E004F0E0D364F5
:10248D00809490500302233EE49002F1F09002F10B
:10249D00E0FFC374019FFEEFFD3395E0FC74F22D58
:1024AD00F58274023CF583EEF09002F1E004F0E069
:1024BD00B408DAE49002F0F0E49002F1F09002F149
:1024CD00E0FFC3648094885068EF3395E0FE74F2AA
:1024DD002FF58274023EF583E0FFC3648094804043
:1024ED00047E0180027E00C3EF6480948850047FD7
:1024FD000180027F00EF5E60309002F1E0FBFF3360
:10250D0095E0FE74F22FF58274023EF583E0FD90A6
:10251D00030B7407F0A3EDF09002F1E090030DF0C2
:10252D00A37401F0E4FF122C8D9002F1E004F08011
:10253D008CE49002F1F09002F1E0FFC36480948886
:10254D005068EF3395E0FE74F22FF58274023EF57C
:10255D0083E0FF14C36480948750047E0180027E63
:10256D0000D3EF6480948040047F0180027F00EEF1
:10257D005F602F9002F1E0FBFF3395E0FE74F22FC8
:10258D00F58274023EF583E014FD90030B7407F0A1
:10259D00A3EDF09002F1E090030DF0E4A3F0FF1233
:1025AD002C8D9002F1E004F0808CE49002F1F0901B
:1025BD0002F1E0FFC364809488502CEF3395E0FE68
:1025CD0074F22FF58274023EF583E0C36480948724
:1025DD00500D74F22FF58274023EF583E004F090F5
:1025ED0002F1E004F080C87F987E3A1242CA900250
:0F25FD00F0E004F0E0D36480949050030224C512
:01260C0022AB
:10002E009002F0743AF0A37498F0A37408F0A3143D
:10003E00F09002F3E0FFC36480948B501AEFFD330F
:10004E0095E0FC74ED2DF58274023CF583EFF09093
:10005E0002F3E004F080DA9002F2E0FF14F0EF70A9
:10006E0003020126E4A3F09002F3E0FFC364809440
:10007E0084505FEFFD3395E0FC74F42DF58274022D
:10008E003CF583E0C364809488500312334F900292
:10009E00F3E0FF3395E0FE74F42FF58274023EF523
:1000AE0083E0FEC364809487501F9002F3EE04FD3C
:1000BE00E0FBC374079BFE900302F0A3EDF0A3EEEA
:1000CE00F0E4A3F0A3F01233789002F3E004F00210
:1000DE000075E49002F3F09002F3E0FFC3648094A5
:1000EE0084502CEF3395E0FE74F42FF58274023EAB
:1000FE00F583E0D364809483400D74F42FF58274FD
:10010E00023EF583E014F09002F3E004F080C89014
:10011E0002F01242C50200659002F27403F0E4A3ED
:10012E00F09002F3E0FFC374059FFEEFFD3395E000
:10013E00FC74F42DF58274023CF583EEF09002F31C
:10014E00E004F0E0B404DA9002F2E0FF14F0EF7095
:10015E0003020217A37401F09002F3E0FFC3648060
:10016E009484505FEFFD3395E0FC74F42DF58274AA
:10017E00023CF583E0C364809484500312334F90A5
:10018E0002F3E0FF3395E0FE74F42FF58274023E25
:10019E00F583E0FEC364809483501F9002F3EE0457
:1001AE00FDE0FBC374079BFE900302F0A3EDF0A3EA
:1001BE00EEF0E4A3F0A3F01233789002F3E004F033
:1001CE00020166E49002F3F09002F3E0FFC3648054
:1001DE009484502CEF3395E0FE74F42FF582740264
:1001EE003EF583E0D364809480400D74F42FF58245
:1001FE0074023EF583E014F09002F3E004F080C840
:10020E009002F01242C50201559002F27403F0A35F
:10021E007401F09002F3E0FFC374049FFEEFFD3310
:10022E0095E0FC74F42DF58274023CF583EEF090AB
:10023E0002F3E004F0E0B404DA9002F2E0FF14F00E
:10024E00EF7003020309A37401F09002F3E0FFC301
:10025E0064809484505EEFFD3395E0FC74F42DF5CC
:10026E008274023CF583E0C36480948040031233B1
:10027E004F9002F3E0FF3395E0FE74F42FF5827495
:10028E00023EF583E0FED364809480401E9002F31C
:10029E00EE14FDE0FB74079BFE900302F0A3EDF05D
:1002AE00A3EEF0E4A3F0A3F01233789002F3E0048F
:1002BE00F00202589002F37401F09002F3E0FFC3D3
:1002CE0064809484502CEF3395E0FE74F42FF58205
:1002DE0074023EF583E0C364809483500D74F42F52
:1002EE00F58274023EF583E004F09002F3E004F030
:1002FE0080C89002F01242C50202479002F27403C7
:10030E00F0E4A3F09002F3E0FF04FEEFFD3395E07E
:10031E00FC74F42DF58274023CF583EEF09002F33A
:10032E00E004F0E0B404DD9002F2E0FF14F0EF70B0
:10033E00030203E4A37401F09002F3E0FFC36480B0
:10034E009484505EEFFD3395E0FC74F42DF58274C9
:10035E00023CF583E0D364809483400312334F90C4
:10036E0002F3E0FF3395E0FE74F42FF58274023E43
:10037E00F583E0FED364809483401E9002F3EE1466
:10038E00FDE0FB74079BFE900302F0A3EDF0A3EEDD
:10039E00F0E4A3F0A3F01233789002F3E004F0023D
:1003AE000346E49002F3F09002F3E0FFC3648094FE
:1003BE0084501AEF3395E0FE74F42FF58274023EEA
:1003CE00F583E004F09002F3E004F080DA9002F09E
:1003DE001242C50203359002F27403F0A3F09002AC
:1003EE00F3E0FFC364809486501AEFFD3395E0FC72
:1003FE0074F22DF58274023CF583EFF09002F3E077
:10040E0004F080DA9002F2E0FF14F0EF70030204C1
:10041E00BAA37401F09002F3E0FFFD3395E0FC7493
:10042E00F42D1233559002F3E0FFFD3395E0FC748A
:10043E00F42DF58274023CF583E004FD9002F3E0A6
:10044E00FBC374079BFE900302F0A3EDF0A3EEF046
:10045E00E4A3F0A3F01233789002F3E004F0E0C3CB
:10046E006480948440AFE49002F3F09002F3E0FFD6
:10047E00C364809484502CEF3395E0FE74F42FF512
:10048E008274023EF583E0D364809483400D74F44D
:10049E002FF58274023EF583E014F09002F3E0042F
:1004AE00F080C89002F01242C50204129002F2745B
:1004BE0003F0E4A3F09002F3E0FFC374059FFEEF98
:1004CE00FD3395E0FC74F42DF58274023CF583EE59
:1004DE00F09002F3E004F0E0B404DA9002F2E0FFF0
:1004EE0014F0EF70030205ABA37401F09002F3E079
:1004FE00FFC364809484505FEFFD3395E0FC74F489
:10050E002DF58274023CF583E0C36480948450031D
:10051E0012334F9002F3E0FF3395E0FE74F42FF5A3
:10052E008274023EF583E0FEC364809483501F9074
:10053E0002F3EE04FDE0FBC374079BFE900302F092
:10054E00A3EDF0A3EEF0E4A3F0A3F0123378900243
:10055E00F3E004F00204FAE49002F3F09002F3E008
:10056E00FFC364809484502CEF3395E0FE74F42F17
:10057E00F58274023EF583E0D364809480400D745E
:10058E00F42FF58274023EF583E014F09002F3E04E
:10059E0004F080C89002F01242C50204E99002F203
:1005AE007403F0E4A3F09002F3E0FFC374039FFE24
:1005BE00EFFD3395E0FC74F42DF58274023CF58367
:1005CE00EEF09002F3E004F0E0B404DA9002F4747A
:1005DE0002F09002F2E0FF14F0EF70030206A2E4C4
:1005EE00A3F09002F3E0FFC364809483505EEFFDAE
:1005FE003395E0FC74F42DF58274023CF583E0C370
:10060E0064809480400312334F9002F3E0FF3395E1
:10061E00E0FE74F42FF58274023EF583E0FEC364AF
:10062E00809480401E9002F3EE04FDE0FB74079B65
:10063E00FE900302F0A3EDF0A3EEF0E4A3F0A3F01E
:10064E001233789002F3E004F00205F0E49002F326
:10065E00F09002F3E0FFC364809484502E9002F277
:10066E00E0FEC374059EC36480F8EF648098501357
:10067E00A3E03395E0FE74F42FF58274023EF58309
:10068E00E014F09002F3E004F080C69002F0124203
:10069E00C50205E09002F2740AF0E4A3F09002F3B2
:1006AE00E0FF24FEFEEFFD3395E0FC74F42DF582A1
:1006BE0074023CF583EEF09002F3E004F0E0B40433
:1006CE00DC9002F2E0FF14F0EF700302078FE4A358
:1006DE00F09002F3E0FFC364809484505EEFFD332C
:1006EE0095E0FC74F42DF58274023CF583E0C3644E
:1006FE00809480400312334F9002F3E0FF3395E075
:10070E00FE74F42FF58274023EF583E0FEC364801E
:10071E009480401E9002F3EE14FDE0FB74079BFEE6
:10072E00900302F0A3EDF0A3EEF0E4A3F0A3F01219
:10073E0033789002F3E004F00206DFE49002F3F067
:10074E009002F3E0FFC364809484502CEF3395E065
:10075E00FE74F42FF58274023EF583E0C364809438
:10076E0087500D74F42FF58274023EF583E004F089
:10077E009002F3E004F080C89002F01242C5020627
:01078E00CF9B
:01078F002247
:1038EE001237E47D107C277F021237EA7D107C2789
:1038FE007F031237EA7D107C27E4FF1237EA123776
:10390E00E47D107C277F021237EA7D107C277F032F
:10391E001237EAE49002F0F0E49002F1F0E4900243
:10392E00F2F09002F2E0FFC3940840030239C79010
:10393E0002F1E0FE9002F0E075F008A4242AF58270
:10394E00E43433F583E5822EF582E43583F583E4A2
:10395E0093FEA807088002C313D8FC30E0529002F1
:10396E00F37401F09002F3E0FBC39408504290020E
:10397E00F1E0FFA3E0FEC374079EFD9003197401EE
:10398E00F0123E569002F3E014FB60159002F1E047
:10399E00FFA3E0FEC374079EFDE4900319F0123EF0
:1039AE00567F887E131242CA9002F3E004F080B470
:1039BE009002F2E004F00239309002F1E004F0E0FF
:1039CE00C39408500302392B7D987C3A7F07123F2F
:1039DE00B89002F0E004F0E0C394035003023926DD
:0139EE0022B6
:102A88009002F1740BF0A374B8F07D107C27E4FF7A
:102A98001237EA1237E47D107C277F021237EA7D6D
:102AA800107C277F031237EA7D107C27E4FF12375A
:102AB800EA1237E47D107C277F021237EA7D107C0A
:102AC800277F031237EA7D107C27E4FF1237EA12CA
:102AD80037E47D107C277F021237EA7D107C27E4DB
:102AE800FF122F2F122F297D107C277F02122F2FE4
:102AF8007D107C277F03122F2F7D107C27E4FF1287
:102B08002F2F122F297D107C277F02122F2F7D1047
:102B18007C277F03122F2FE49002F0F09002F0E060
:102B2800FFC39408502BE0FDC374079D900302F087
:102B3800A3EFF0A37407F0A37401F0A3F0E4FBFF84
:102B48001233789002F11242C59002F0E004F0804E
:102B5800CB7F307E751242CA9002F1E0FCA3E0FD03
:102B6800E4FF1228F17F307E751242CA1228E77FEF
:102B7800307E751242CA9002F1E0FCA3E0FD7F02AC
:102B88001228F17F307E751242CA9002F1E0FCA350
:102B9800E0FD7F031228F17F307E751242CA900251
:102BA800F1E0FCA3E0FDE4FF1228F17F307E75120E
:102BB80042CA1228E77F307E751242CA9002F1E0BD
:102BC800FCA3E0FD7F021228F17F307E751242CA15
:102BD8009002F1E0FCA3E0FD7F031228F19002F0DF
:102BE8007407F09002F0E0FF900302F0A37407F07E
:102BF800A3F0A37401F0E4A3F0FBFD123378900274
:102C0800F11242C59002F0E014F0E0D3940050D3E2
:012C18002299
:10423B009002F07405F09002F0E0FFC39408501D5B
:10424B007D107C2712348C7F607EEA1242CA7F601D
:0D425B007EEA1242CA9002F0E004F080D921
:014268002233
:100D0E00E49002F0F09002F0E0FF900302F0A37482
:100D1E0007F0A3F0A37401F0A3F0E4FBFD12337807
:100D2E009002F0E0601814FF900302F0A37407F035
:100D3E00A3F0A37401F0E4A3F0FBFD1233787F104F
:100D4E007E271242CA9002F0E004F0E0C364809461
:100D5E008840B27D107C277F03122F2F7D107C27B9
:100D6E00E4FF122F2F122F29E49002F0F09002F0E0
:100D7E00E0FEC374069EFDFFC374069E90030BF047
:100D8E00A3F0A37407F0A37401F0E4FB122C8D9072
:100D9E0002F0E0FF90030BF0A37407F0A3F0E4A3BE
:100DAE00F0FB7D07122C8D7F107E271242CA900217
:100DBE00F0E004F0E0C36480948740B1E49002F068
:100DCE00F09002F0E0FFC364809488501AEF3395E0
:100DDE00E0FE74F22FF58274023EF583740EF090ED
:100DEE0002F0E004F080DAE49002F0F0E4FF124248
:100DFE0094E49002F1F0122C199002F1E004F0E06C
:100E0E00C3940840F1E49002F1F09002F1E0FFC3C8
:100E1E009408504D9002F0E0FDFB3395E0FAD3EBD1
:100E2E009F7480F86A9840047F0180027F00ED2451
:100E3E00B9FE9002F1E0FDD3EE6480F8ED64809887
:100E4E0040047E0180027E00EF5E600D74F22DF58F
:100E5E0082E43402F583E004F09002F1E004F080C5
:100E6E00A97F887E131242CA9002F0E004F0E0C31C
:100E7E00648094D55003020DFAE49002F0F0E4FF82
:100E8E00124294E49002F1F0122C199002F1E00457
:100E9E00F0E0C3940840F1E49002F1F09002F1E02A
:100EAE00FFC39408504D9002F0E0FDFB3395E0FA3D
:100EBE00D3EB9F7480F86A9840047F0180027F0014
:100ECE00ED24B9FE9002F1E0FDD3EE6480F8ED64FE
:100EDE00809840047E0180027E00EF5E600D74F209
:100EEE002DF582E43402F583E014F09002F1E00473
:100EFE00F080A97F887E131242CA9002F0E004F0BF
:100F0E00E0C3648094D55003020E8CE49002F0F09E
:100F1E00E4FF1242949002F2E0FE75F01C849002FF
:100F2E00FCE5F0F0E09032F693FDC4135407900206
:100F3E00FAF0FBED13135407A3F0FAEE24F2FFE4DC
:100F4E0034FFFE7C007D1C123AF4A3EDF0E09032EB
:100F5E00F693FFC4135407FE9002FDF0EF131354E3
:100F6E0007A3F0FCAF03AD02900302EEF0A3ECF08A
:100F7E00A37407F0E4A3F0A304F0E4FB123378901B
:100F8E0002FAE0FFA3E0FD9002FDE0900302F09074
:100F9E0002FEE0900303F0A37406F0E4A3F0A304B2
:100FAE00F0FB1233789002F2E004F07F887E131289
:100FBE0042CA9002F0E004F0E0C36480949D5003B6
:100FCE00020F1EE49002F0F0E4FF1242949002F23F
:100FDE00E0FE75F01C849002FCE5F0F0E09032F635
:100FEE0093FDC41354079002FAF0FBED131354074C
:100FFE00A3F0FAEE24F2FFE434FFFE7C007D1C1217
:10100E003AF4A3EDF0E09032F693FFC4135407FECA
:10101E009002FDF0EF13135407A3F0FCAF03AD02E3
:10102E00900302EEF0A3ECF0A37407F0A37401F0AA
:10103E00A3F0E4FB1233789002F2E014F07F887E86
:10104E00131242CA9002F0E004F0E0C36480949060
:10105E005003020FD6E49002F0F09002F0E0FEC3CF
:10106E00648094885023E0FDFFE490030BF0A3F01E
:10107E00A3EEF0E4A3F0FB122C8D7F887E131242B8
:10108E00CA9002F0E004F080D19002F07401F0906A
:10109E0002F0E0FEC3648094875025E0FDFF9003CC
:1010AE000B7407F0A3F0A3EEF0E4A3F07B07122C71
:1010BE008D7F887E131242CA9002F0E004F080CF3A
:1010CE009002F07401F0E4FF1242949002F0E0FFFF
:1010DE00C374079F900302F0A3F0A3F0E4A3F0A360
:1010EE0004F07B077D077F071212607F107E2712A8
:1010FE0042CA9002F0E004F0E0C36480948840C6D7
:10110E009002F07401F0E4FF1242949002F0E0FFBE
:10111E00C374079F900302F0A3F0A3F0E4A3F0A31F
:10112E0004F0E4FBFDFF1212607F107E271242CA0C
:10113E009002F0E004F0E0C36480948740C890020F
:10114E00F07401F0E4FF1242949002F0E09003027A
:10115E00F0A3F0A3F0E4A3F0A304F0E4FBFD12125D
:10116E00607F107E271242CA9002F0E004F0E0C3C6
:10117E006480948840CE9002F07401F0E4FF124235
:10118E00949002F0E0FF900302F0C374079FA3F067
:10119E00A3F0E4A3F0A304F0E4FBFD7F07121260BA
:1011AE007F107E271242CA9002F0E004F0E0C36482
:1011BE0080948740C79002F07401F09002F0E0FF37
:1011CE00C364809488502CC374079F900302F0A3CD
:1011DE00EFF0900304F0A37401F0A3F0E4FBFD7FA5
:1011EE00071212607F107E271242CA9002F0E004AE
:1011FE00F080C89002F07401F0E4FF124294900265
:10120E00F0E0FFC374079F900302F0A3EFF090038A
:10121E0004F0A37401F0A3F07B077D07E4FF121224
:10122E00607F107E271242CA9002F0E004F0E0C305
:06123E006480948740C3A8
:011244002287
:100790009002F07401F01212459002F0E0FFC007E1
:1007A000C374069FFBE0FE04900302F0A37407F0FD
:1007B000C39EA3F0A37401F0A3F0D0077D0612122C
:1007C000609002F0E0FF0490030212124F9002F0DA
:1007D000E0FFC374069FFB9003027401F0A374074B
:1007E000F0C39FA3F0A37401F0A3F07D06E4FF1211
:1007F00012609002F0E0FFC374069FFD9003027444
:1008000001F0C374079FA3F0A37407F0A37401F071
:10081000A3F07B06E4FF1212609002F0E0FFC00735
:10082000C374069FFBFDE0FE04900302F0C374074F
:100830009EA3F0A3F0A37401F0A3F0D007121260FE
:100840009002F0E0FFC007C374069FFDE0FE049035
:100850000302F0C374079EA3F0A37407F0A374010E
:10086000F0A3F0D0077B061212609002F0E0FFC305
:1008700074069FFBFD9003027401F0C374079FA3ED
:10088000F0A3F0A37401F0A3F0E4FF1212607F3034
:100890007E751242CA9002F0E004F0E0C394075063
:1008A00003020796E49002F0F09002F0E0FF75F08A
:1008B00006A4FE74F22FF582E43402F583EEF09084
:1008C00002F0E004F0E0B404E0E49002F0F0E4FFB1
:1008D000124294E49002F1F09002F1E0FFC394041C
:1008E000507874F22FF582E43402F583E075F01845
:1008F000849002F8E5F0F0E090331293FFC4540FB7
:100900009002F6F0EF540FA3F09002F6E0FFC0075C
:10091000A3E0FDEF04900302F0ED04A3F0A3740143
:10092000F0A3F0A3F0D007E4FB1212609002F6E00F
:10093000FFC007A3E0FDEF04900302F0ED04A3F075
:10094000A37407F0A37401F0A3F0D0077B06121282
:10095000609002F1E004F00208D8E49002F1F09017
:1009600002F1E0FFC39404501574F22FF582E434D1
:1009700002F583E004F09002F1E004F080E17F10E2
:100980007E271242CA9002F0E004F0E0C3942350A4
:10099000030208CEE49002F0F0E4FF124294E490E7
:1009A00002F1F09002F1E0FFC39404507874F22F4A
:1009B000F582E43402F583E075F018849002F8E5DE
:1009C000F0F0E090331293FFC4540F9002F6F0EF72
:1009D000540FA3F09002F6E0FFC007A3E0FDEF0480
:1009E000900302F0ED04A3F0A37401F0A3F0A3F0D0
:1009F000D007E4FB1212609002F6E0FFC007A3E00C
:100A0000FDEF04900302F0ED04A3F0A37407F0A33C
:100A10007401F0A3F0D0077B061212609002F1E09F
:100A200004F00209A3E49002F1F09002F1E0FFC3A8
:100A30009404501574F22FF582E43402F583E01427
:100A4000F09002F1E004F080E17F107E271242CAAC
:100A50009002F0E004F0E0C394235003020999E40B
:100A60009002F0F0E4FF124294E49002F1F0900260
:100A7000F1E0FFC39404507A74F22FF582E434025B
:100A8000F583E075F018849002F8E5F0F0E090331B
:100A90001293FFC4540F9002F6F0EF540FA3F0909E
:100AA00002F6E0FFC007A3E0FBEF04900302F0A30F
:100AB0007401F0EB04A3F0A37401F0A3F0D007E4F9
:100AC000FD1212609002F6E0FFC007A3E0FBEF0406
:100AD000900302F0A37407F0EB04A3F0A37401F0F9
:100AE000A3F0D0077D061212609002F1E004F0023C
:100AF0000A6EE49002F1F09002F1E0FFC39404501A
:100B00001574F22FF582E43402F583E004F09002CC
:100B1000F1E004F080E17F107E271242CA9002F0DB
:100B2000E004F0E0C394235003020A64E49002F06E
:100B3000F0E4FF124294E49002F1F09002F1E0FF41
:100B4000C39404507A74F22FF582E43402F583E002
:100B500075F018849002F8E5F0F0E090331293FFFE
:100B6000C4540F9002F6F0EF540FA3F09002F6E099
:100B7000FFC007A3E0FBEF04900302F0A37401F0B1
:100B8000EB04A3F0A37401F0A3F0D007E4FD12126C
:100B9000609002F6E0FFC007A3E0FBEF04900302C1
:100BA000F0A37407F0EB04A3F0A37401F0A3F0D05A
:100BB000077D061212609002F1E004F0020B3BE4A4
:100BC0009002F1F09002F1E0FFC39404501574F22A
:100BD0002FF582E43402F583E014F09002F1E00492
:100BE000F080E17F107E271242CA9002F0E004F00C
:100BF000E0C394245003020B319002F07406F0120B
:100C000012459002F0E0FFC007C374069FFBE0FEB0
:100C100004900302F0A37407F0C39EA3F0A3740131
:100C2000F0A3F0D0077D061212609002F0E0FF04FE
:100C300090030212124F9002F0E0FFC374069FFB74
:100C40009003027401F0A37407F0C39FA3F0A37490
:100C500001F0A3F07D06E4FF1212609002F0E0FFC5
:100C6000C374069FFD9003027401F0C374079FA331
:100C7000F0A37407F0A37401F0A3F07B06E4FF1265
:100C800012609002F0E0FFC007C374069FFBFDE016
:100C9000FE04900302F0C374079EA3F0A3F0A374B4
:100CA00001F0A3F0D0071212609002F0E0FFC0073D
:100CB000C374069FFDE0FE04900302F0C374079E18
:100CC000A3F0A37407F0A37401F0A3F0D0077B0690
:100CD0001212609002F0E0FFC374069FFBFD9003C8
:100CE000027401F0C374079FA3F0A3F0A37401F092
:100CF000A3F0E4FF1212607F307E751242CA9002A8
:0D0D0000F0E014F0E0D394004003020BFF7C
:010D0D0022C3
:10309C00E49002F1F0E49002F0F09002F0E0FFC353
:1030AC00940D5065EF90334293FFC4540F6021EFA1
:1030BC00540F9002F2F004FBE490030BF0A374079E
:1030CC00F0A3EBF0A37401F0E4FDFF122C8D800C47
:1030DC009002F0E0903342939002F2F09002F2E012
:1030EC00FBE490030BF0A37407F0A3EBF0A37401C3
:1030FC00F0E4FDFF122C8D1242697F107E271242E4
:10310C00CA9002F0E004F080919002F1E004F0E04B
:10311C00C3940540809002F17401F09002F1E0FF3D
:10312C00C39408506EEF94034006A37404F080051A
:10313C009002F2EFF0E49002F0F09002F0E0FFC3A6
:10314C0094185047EF90331293FFC4540F9002F32E
:10315C00F0EF540FA3F0FB9002F3E0FDE4900302B8
:10316C00F0ED04A3F0EB04A3F0A37401F0A3F0E4DE
:10317C00FF1233781242697F107E271242CA9002E6
:10318C00F1E0FF9002F0E02FF080AF9002F1E0044C
:10319C00F080889002F17401F09002F1E0FFC3948A
:1031AC0008505EEF94034006A37404F0800590026F
:1031BC00F2EFF0E49002F0F09002F0E0FFC394180C
:1031CC005037EF90331293FFC4540FFE9002F3F07C
:1031DC00FDEF540FA3F0FB9003197401F0E4FF1200
:1031EC003E561242697F107E271242CA9002F1E0CD
:1031FC00FF9002F0E02FF080BF9002F1E004F0802D
:01320C009829
:01320D00229E
:070003000000007F10DFFE8A
:01000A0022D3
:0D42BD00F58374FFF09002F4E0FEA3E0FF33
:1042CA00AD07AC06ED1DAE0470011C4E6005120070
:0442DA000380F1224A
:10404400D2A700E4F58000C2A7D2A600F58000C282
:10405400A6D2A500F58000C2A5D2A400F58000C2B6
:10406400A4D2A300F58000C2A3D2A200F58000C2AE
:10407400A2D2A100F58000C2A1D2A0007580FF00E9
:03408400C2A022B5
:10408700D2A700E4F58000C2A7D2A600F58000C23F
:10409700A6D2A500F58000C2A5D2A400F58000C273
:1040A700A4D2A300F58000C2A3D2A200F58000C26B
:1040B700A2D2A1007580FF00C2A1D2A000F58000A6
:0340C700C2A02272
:10410900D2A7E4F580C2A7D2A6F580C2A6D2A5F5AA
:1041190080C2A5D2A4F580C2A4D2A3F580C2A3D23D
:10412900A27580FFC2A2D2A1F580C2A1D2A0F5805A
:03413900C2A022FF
:10413C00D2A7E4F580C2A7D2A6F580C2A6D2A5F577
:10414C0080C2A5D2A4F580C2A4D2A37580FFC2A35D
:10415C00D2A2F580C2A2D2A1F580C2A1D2A0F580D4
:03416C00C2A022CC
:10416F00D2A7E4F580C2A7D2A6F580C2A6D2A5F544
:10417F0080C2A5D2A47580FFC2A4D2A3F580C2A32A
:10418F00D2A2F580C2A2D2A1F580C2A1D2A0F580A1
:03419F00C2A02299
:1041A200D2A7E4F580C2A7D2A6F580C2A6D2A57591
:1041B20080FFC2A5D2A4F580C2A4D2A3F580C2A377
:1041C200D2A2F580C2A2D2A1F580C2A1D2A0F5806E
:0341D200C2A02266
:1041D500D2A7E4F580C2A7D2A67580FFC2A6D2A554
:1041E500F580C2A5D2A4F580C2A4D2A3F580C2A34E
:1041F500D2A2F580C2A2D2A1F580C2A1D2A0F5803B
:03420500C2A02232
:10420800D2A77580FFC2A7D2A6E4F580C2A6D2A520
:10421800F580C2A5D2A4F580C2A4D2A3F580C2A31A
:10422800D2A2F580C2A2D2A1F580C2A1D2A0F58007
:03423800C2A022FF
:043F9E0041031C00BF
:103FFF002095127F0A7E001242CA20953790031C2B
:10400F007401F080F52096127F0A7E001242CA20BA
:10401F00962290031C7402F080F52097127F0A7E7F
:10402F00001242CA20970D90031C7403F080F5E430
:05403F0090031CF022BB
:084334000080C0E0F0F8FCFE7F
:103FA2004102A2004102A4004102A3004202A60073
:053FB2000041021F00A8
:083F2300E0540790433493FFC2
:103F2B00E49002EDF0C292C293C294C2B3C2B4C287
:103F3B00B5C2B7C2B6EF30E002D292EF30E102D297
:103F4B0093EF30E202D294EF30E302D2B3EF30E4DE
:103F5B0002D2B4EF30E502D2B5EF30E602D2B7EFC2
:053F6B0030E702D2B6B0
:013F7000222E
:10431100E4F580F5A0D292D293D294D2B3D2B4D2A2
:04432100B5D2B72238
:1042F80053877F759850438E04759CFD438E014308
:094308008E10D29CD2ACD2AF227F
:03002300023B7F1E
:103B7F00C0E0C083C082C0D075D000C004C005C0F3
:033B8F0006C00766
:103B92009002E8E4F0A3F0A3F0A3F0209803023C23
:103BA200329002A6A3E02421F582E43402F583E5F3
:103BB20099F0C298900221E0FFB4F2369002A7E099
:103BC20004F070069002A6E004F09002A6E0FCA3C6
:103BD200E0FD64414C6009D3ED9441EC9400405205
:103BE2009002A6E4F0A3F0900221F09002A304F068
:103BF2008040EFB4F43C9002A7E004F0700690021B
:103C0200A6E004F09002A6E0FEA3E0FF64024E608C
:103C120009D3EF9402EE94004018900222E0FFF5DF
:103C2200FA8FFB9002A6E4F0A3F0900221F080024A
:023C3200C29935
:103C3400D007D006D005D004D0D0D082D083D0E035
:013C4400324D
:101B4A00E49002EEF0A3F0124311E4FF1242941261
:101B5A003FFF90031CE064016003021E85F075A834
:101B6A0082758801758CC0F58AD28CD2BCC2B91232
:101B7A0042F890022004F09002A3E060FAE4900296
:101B8A00A3F09002EEF0E49002EFF09002EFE0FF93
:101B9A00C3940850259002EEE075F008A42462F57B
:101BAA0082E43402F583E5822FF582E43583F583F6
:101BBA00E4F09002EFE004F080D19002EEE004F04D
:101BCA00E0B408C2E49002EFF0E49002EEF0900272
:101BDA00EFE0FF75F008A42462F582E43402F5838D
:101BEA00C083C082E0FE9002EEE0FD2422F582E48A
:101BFA003402F583E0FCA807088002C313D8FC541A
:101C0A0001FFC374079DFDEFA805088002C333D8FE
:101C1A00FC4ED082D083F09002EFE0FF75F008A46A
:101C2A002463F582E43402F583C083C082E0FE9027
:101C3A0002EEE0242AF582E43402F583E0FCA807E8
:101C4A00088002C313D8FC5401FFA805088002C308
:101C5A0033D8FC4ED082D083F09002EFE0FF75F0CB
:101C6A0008A42464F582E43402F583C083C082E0C8
:101C7A00FE9002EEE0FD2432F582E43402F583E0C0
:101C8A00FCA807088002C313D8FC5401FFC37407D9
:101C9A009DFDEFA805088002C333D8FC4ED082D040
:101CAA0083F09002EFE0FF75F008A42465F582E462
:101CBA003402F583C083C082E0FE9002EEE0243A4B
:101CCA00F582E43402F583E0FCA807088002C31316
:101CDA00D8FC5401FFA805088002C333D8FC4ED0B3
:101CEA0082D083F09002EFE0FF75F008A42466F535
:101CFA0082E43402F583C083C082E0FE9002EEE003
:101D0A00FD2442F582E43402F583E0FCA80708804A
:101D1A0002C313D8FC5401FFC374079DFDEFA80545
:101D2A00088002C333D8FC4ED082D083F09002EFF1
:101D3A00E0FF75F008A42467F582E43402F583C055
:101D4A0083C082E0FE9002EEE0244AF582E4340287
:101D5A00F583E0FCA807088002C313D8FC5401FFEE
:101D6A00A805088002C333D8FC4ED082D083F090F5
:101D7A0002EFE0FF75F008A42468F582E43402F566
:101D8A0083C083C082E0FE9002EEE0FD2452F58219
:101D9A00E43402F583E0FCA807088002C313D8FCE8
:101DAA005401FFC374079DFDEFA805088002C333E1
:101DBA00D8FC4ED082D083F09002EFE0FF75F00895
:101DCA00A42469F582E43402F583C083C082E0FE6C
:101DDA009002EEE0245AF582E43402F583E0FCA88E
:101DEA0007088002C313D8FC5401FFA80508800223
:101DFA00C333D8FC4ED082D083F09002EEE004F0D8
:101E0A00E064086003021BD89002EFE004F0E0648B
:101E1A00086003021BD3C28CE49002EEF0E4900245
:101E2A00EFF09002EFE0FF9002EEE0FE75F008A4FA
:101E3A002462F582E43402F583E5822FF582E435E3
:101E4A0083F583E0FDC374079E75F008A424A8F502
:101E5A0082E43402F583E5822FF582E43583F58343
:101E6A00EDF09002EFE004F0E0B408B69002EEE084
:101E7A0004F0E0B408A7D28C021B8190031CE06432
:101E8A00026003021F1C75B2FFF5B17594FFF5934A
:101E9A007596FFF595759D0253A2FBD2AD75BCE907
:101EAA00D2A9C28CD2ABC28EC2BBD2B975B720A29C
:101EBA00BD33F5B8D2AFE4FF124294758912758C1E
:101ECA0060758A60758DFD758BA8E4900220F0D24A
:101EDA008ED28C9002A2F0D28ED28CD2AD9002A277
:101EEA00E0C3948040F7E49002EEF09002EEE0FF47
:101EFA00C394805018EF25E02417F582E43401F5E5
:101F0A0083E4F0A3F09002EEE004F080DE1216CB38
:101F1A0080B890031CE064036003021B54758911A6
:101F2A00C2AF90022004F0D2B9D2A9C2ACD28CD2EC
:101F3A00AFE4FF124294123EC0E4FF1242941239F7
:101F4A00EFE4FF1242941235B512230D12002E123D
:101F5A00002E1238EE122A8812423B120D0E120778
:101F6A0090E4FF12429412309C120D0E12002E12AF
:101F7A002A8812002E1238EE12423B120D0E120758
:031F8A009080B391
:03001B000236D1D9
:1036D100C0E0C0F0C083C082C0D075D000C000C0BF
:1036E10001C002C003C004C005C006C007758DFD3E
:1036F100758BA89002A4E004F0E0C3941140037418
:1037010001F09002A4E014B4100040030237C99004
:10371100371E75F003A4C58325F0C5837302374EA8
:1037210002375302375F023764023770023775027E
:1037310037800237850237900237950237A002376A
:10374100A50237B00237B50237C00237C090010376
:103751008003900104123F231240440237C99001B3
:10376100058003900106123F231240870237C9905A
:1037710001078003900108123F23124109804990FB
:103781000109800390010A123F2312413C803990C4
:10379100010B800390010C123F2312416F8029908D
:1037A100010D800390010E123F231241A280199056
:1037B100010F8003900110123F231241D58009901F
:1037C1000111123F23124208D007D006D005D004C0
:1037D100D003D002D001D000D0D0D082D083D0F09D
:0337E100D0E03203
:03002B00023D6C27
:103D6C00C0E0C0F0C083C082C0D075D000C003C01A
:103D7C0004C005C006C00775BC00AFBDEF25E0FD53
:103D8C00E433FCE5BEC31375F002A42DFDE5F03C55
:103D9C00FC9002A2E0FB902EA993FF3395E0FEEF7E
:103DAC0025E0FFEE33FE74022FF58274003EF5839E
:103DBC00ECF0A3EDF0EBD3947F50089002A2E0045A
:103DCC00F08004C2ADC28CD007D006D005D004D090
:0C3DDC0003D0D0D082D083D0F0D0E032F1
:03000B00023C456F
:103C4500C0E0C0F0C083C082C0D075D000C000C045
:013C55000767
:103C5600900220E064017070C292C293C294C2B313
:103C6600C2B4C2B5C2B7C2B6FF7401A807088002C3
:103C7600C333D8FCF5A090021FE075F008A424A871
:103C8600F582E43402F583E5822FF582E43583F587
:103C960083E0F5800FEFB408D090021FE0FF7401B7
:103CA600A807088002C333D8FCFF123F2B90021FDF
:103CB600E0C394075005E004F0800590021FE4F08D
:0B3CC600758CFA758AF0800375BCE96C
:0F3CD100D007D000D0D0D082D083D0F0D0E03256
:03000000023CE0DF
:0C3CE000787FE4F6D8FD758107023D27CF
:103AB700BB010689828A83E0225002E722BBFE020D
:093AC700E32289828A83E4932240
:103AD000BB010689828A83F0225002F722BBFE01D5
:023AE000F322CF
:103AE200EF8DF0A4A8F0CF8CF0A428CE8DF0A42EF8
:023AF200FE22B2
:103AF400BC000BBE0029EF8DF084FFADF022E4CCB6
:103B0400F875F008EF2FFFEE33FEEC33FCEE9DEC7E
:103B1400984005FCEE9DFE0FD5F0E9E4CEFD22EDC4
:103B2400F8F5F0EE8420D21CFEADF075F008EF2F0E
:103B3400FFED33FD4007985006D5F0F222C398FDFF
:053B44000FD5F0EA229C
:103B4900C2D5EC30E709B2D5E4C39DFDE49CFCEE97
:103B590030E715B2D5E4C39FFFE49EFE123AF4C3E1
:103B6900E49DFDE49CFC8003123AF430D507C3E4DC
:063B79009FFFE49EFE2206
:103CEC00021B4AE493A3F8E493A34003F68001F289
:103CFC0008DFF48029E493A3F85407240CC8C333D9
:103D0C00C4540F4420C8834004F456800146F6DFA7
:103D1C00E4800B0102040810204080903F71E47E87
:103D2C00019360BCA3FF543F30E509541FFEE4939C
:103D3C00A360010ECF54C025E060A840B8E493A363
:103D4C00FAE493A3F8E493A3C8C582C8CAC583CA8E
:103D5C00F0A3C8C582C8CAC583CADFE9DEE780BE46
:013FB7000009
:00000001FF
