:030000000216C223
:0C16C200787FE4F6D8FD75810702000077
:10000300000000000000000000FFFF0000FFFF00F1
:10001300FFFFFFFFFFFFFFFFFFFFFFFFFFFFFFFFED
:10002300FFFFFFFFFFFFFFFF00FFFFFFFFFF0000DA
:100033000000FFFFFFFF0000000000FFFF000000C3
:1000430000000000000000000000000000000000AD
:100053000000FF0000FF000000FFFDFFFFFDFF00A9
:1000630000FFFDFDFDFDFF000000FFFDFDFF0000A3
:10007300000000FFFF00000000000000000000007F
:1000830000000000000000000000002B0000000042
:1000930000002B302B000000002B1C30302B000005
:1000A30000002B1C30302B000000002B1C2B000009
:1000B300000000002B000000000000000000000012
:1000C3000000000303000000000001010101000023
:1000D30000C5C5C5C5C5C500FEFEFEFEFEFEFEFE8F
:1000E30000C5C5C5C5C5C50000000101010100006B
:1000F30000000003030000000000000000000000F7
:10010300FFFFFFFFFFFFFFFFFFFFFFFFFFFFFFFFFC
:10011300FFFF00000000FFFFFFFF00000000FFFFE4
:10012300FFFF00000000FFFFFFFF00000000FFFFD4
:10013300FFFFFFFFFFFFFFFFFFFFFFFFFFFFFFFFCC
:1001430000000000000000000000030303030000A0
:100153000003F2E9E9DD03000003E9F2DDE903004E
:100163000003E9DDF2E903000003DDE9E9F203003E
:100173000000030303030000000000000000000070
:10018300000000000000000000000000000000006C
:10019300000000000000000000008000008000005C
:1001A300000080808080000000000080800000004C
:1001B300000000000000000000000000000000003C
:1001C300000000000000000000000000000000002C
:1001D30000008000008000000080C58080C5800092
:1001E3000080C5C5C5C58000000080C5C58000006E
:1001F30000000080800000000000000000000000FC
:10020300000000FF000000000000FFCAFF00000024
:1002130000FFCAB9CAFF0000FFCACBB9B9CAFF00C1
:1002230000FFCACBB9B9CAFF0000FFCACBCAFF009F
:10023300000000FFCAFF000000000000FF000000F4
:10024300000000FCFC0000000000FEFEFEFE0000BB
:1002530000FEFEFEFEFEFE00A6A6A6A6A6A6A6A677
:1002630000FEFEFEFEFEFE000000FEFEFEFE00009F
:10027300000000FCFC000000000000000000000083
:10028300808080808080808080FFFFFFFFFFFF8071
:1002930080FFFFFFFFFFFF8080FFFFFFFFFFFF8067
:1002A30080FFFFFFFFFFFF8080FFFFFFFFFFFF8057
:1002B30080FFFFFFFFFFFF80808080808080808041
:1002C30000001A1A1A1A0000001AFCFCFCFC1A009F
:1002D3001AFC80E9E926FC1A1AFCE98026E9FC1AD3
:1002E3001AFCE92680E9FC1A1AFC26E9E980FC1AC3
:1002F300001AFCFCFCFC1A0000001A1A1A1A00006F
:1003030000000000000000000000000000000000EA
:1003130000008000008000000080C08080C080005A
:100323000080C0C0C0C08000000080C0C08000004A
:1003330000000080800000000000000000000000BA
:1003430000000000000000000000000000000000AA
:10035300000000000000000000003600003600002E
:100363000000363636360000000000363600000046
:0D037300000000000000000000000000007D
:10038000000000000000000000000000000062000B
:10039000000000000062C4620000000062E3C4C408
:1003A000620000000062E3C4C4620000000062E377
:1003B0006200000000000062000000000000000079
:1003C000000000000000989800000000001B1B1BAC
:1003D0001B000000010101010101000101010101F7
:1003E00001010101010101010101010001010101FE
:1003F00001010000001B1B1B1B000000000098985F
:1004000000000000000000000000000000000000EC
:100410000000000000000000000000000000FFFFDE
:10042000000000000000FFFF0000000000000000CE
:1004300000000000000000000000000000000000BC
:100440000000000000FFFFFFFF000000FF6767677C
:1004500067FF00FF670B12121C67FFFF67120B1C80
:100460001267FFFF67121C0B1267FFFF671C121257
:100470000B67FF00FF67676767FF000000FFFFFF74
:03048000FF00007A
:100FA800604005050000000000000000000000008F
:100FB8000000000000000000000000000000000029
:100FC8000000000000000000000000000000000019
:100FD8000000000000000000000000000000000009
:100FE80000000000604004C5000000000000000090
:100FF80000000000000000000000000000000000E9
:1010080000000000000000000000000000000000D8
:1010180000000000000000000000000000000000C8
:10102800000000000000000060400485000000008F
:1010380000000000000000000000000000000000A8
:101048000000000000000000000000000000000098
:101058000000000000000000000000000000000088
:0C1068000000000000000000000000007C
:1015C800E0FEA3E0FF7D727C00AB07AA06D3EB9494
:1015D80000EA94004007EB1B70F31A80F0ED1D70D1
:0715E800011CED4C70E32231
:10153000E490059CF0A3F090059CE0FEA3E0FFC3BF
:101540009440EE94005021C00790058812000000DE
:10155000000000D0071212E790059DE004F070D75C
:0915600090059CE004F080CF220C
:0B16CE0000007F027E0FDEFEDFFC222A
:1016A100D29200000000000000000000000000C213
:0216B100922283
:0B16D900D292000000000000C292222C
:1010740074C52AF582E43404F583E0FF74052AF587
:1010840082E43405F583E0FD74852AF582E43404B2
:10109400F583E0FBA907E4FFFEAC07E9A804088098
:1010A40002C333D8FCF930E0051216A180031216EE
:1010B400D90FBF00010EEF64084E70DDE4FEFFACF3
:1010C40007EDA804088002C333D8FCFD30E0051204
:1010D40016A180031216D90FBF00010EEF64084E4B
:1010E40070DDE4FEFFAD07EBA805088002C333D82A
:1010F400FCFB30E0051216A180031216D90FBF00C5
:09110400010EEF64084E70DD22BB
:05170500C2920216CEA5
:10156900E4FA74052AF582E43405F583EFF074C5CD
:101579002AF582E43404F583EDF074852AF582E4D2
:101589003404F583EBF00AEAB440D7E4FA12107494
:061599000AEAB440F8224A
:1014E60090057DEEF0A3EFF0A905E4FA90057DA343
:1014F600E0FF2404F582E43405F583E9F074C42F93
:10150600F582E43404F583EBF0900581E0FE748403
:101516002FF582E43404F583EEF00AEAB440CDE414
:0A152600FA1210740AEAB440F82229
:10128100AB07E4FA900583E0FCA3E0FDA3E0FEA335
:10129100E0FF781012000074052BF582E43405F5A7
:1012A10083EFF0900583E0FCA3E0FDA3E0FEA3E063
:1012B100FF780812000074C52BF582E43404F5832D
:1012C100EFF0900583A3A3A3E0FF74852BF582E4DF
:1012D1003404F583EFF00AEAB440A9E4FA12107479
:0612E1000AEAB440F82205
:1012E700AB07E4FA900588E0FCA3E0FDA3E0FEA3CA
:1012F700E0FF781012000074042BF582E43405F542
:1013070083EFF0900588E0FCA3E0FDA3E0FEA3E0F7
:10131700FF780812000074C42BF582E43404F583C7
:10132700EFF0900588A3A3A3E0FF74842BF582E474
:101337003404F583EFF00AEAB440A9E4FA12107412
:061347000AEAB440F8229E
:03170A00021705BE
:10134D00FF7C007D05120000900598A3E02FFFFBA8
:10135D00E4FD90059EEFF0A3EBF0AF05E4FCFDFE80
:10136D007808120000C004C005C006C00790059E95
:10137D00E0FFE4FCFDFE7810120000D003D002D097
:10138D0001D000EF4BFBEE4AFAED49F9EC48F8A31A
:0C139D00E0FFEB4FFFEAFEE9FDE8FC2258
:1013FD009005A2EFF0C374FF9FF0C39455500FE01A
:10140D0075F003A4FBC374FF9BFFE4FD80309005D2
:10141D00A2E0C394AA5013E024ABF0E075F003A44E
:10142D00FDC374FF9DFBE4FF80149005A2E02456DC
:10143D00F0E075F003A4FFC374FF9FFDE4FB1213EE
:02144D005F221C
:10120900900571EEF0A3EFF0E4900575F0A3F0E41A
:10121900900573F0A3F0900573E0FEA3E0FFC3947B
:1012290040EE94005029A3A3E0FDEF2DFF1213FD1A
:10123900900583120000900573A3E0FF12128190BC
:101249000574E004F070CF900573E004F080C712D4
:10125900170A9005711215C8900576E004F070061A
:10126900900575E004F0C3900576E0940290057549
:08127900E09400409A021530D8
:10118C00900577EEF0A3EFF0E490057BF0A3F0E48C
:10119C00900579F0A3F0900579E0FEA3E0FFC394ED
:1011AC0040EE94005036EFFEE47806CEC313CE1317
:1011BC00D8F9FF90057BA3E02FFF1213FD90058358
:1011CC00120000900579A3E0FF12128190057AE0DD
:1011DC0004F070C2900579E004F080BA12170A90FE
:1011EC0005771215C890057CE004F0700690057B1D
:0D11FC00E004F0C390057BE09405409322D1
:100DB400900549E4F0A37450F0900545120000E456
:100DC40090054BF0A3F0E490054DF0A3F0E49005FA
:100DD4004FF0A3F090054FE0FEA3E0FFC39440EE74
:100DE4009400503490054DA3E0FDEF2DFFC0079013
:100DF4000545E0FCA3E0FDA3E0FEA3E0FF9005832E
:100E0400120000D007121281900550E02403F090E4
:100E1400054FE03400F080BC12170A900549121502
:100E2400C8E490054FF0A3F090054FE0FEA3E0FF67
:100E3400C39440EE9400502A90054DA3E0FDEF2D9D
:100E4400FFC00790058312000000000000D00712C5
:100E54001281900550E02403F090054FE03400F037
:100E640080C612170A90054EE004F0700690054DF6
:100E7400E004F0C390054EE0940390054DE06480D7
:100E840094805003020DD190054CE004F07006905C
:100E9400054BE004F0C390054CE0940190054BE051
:0A0EA400648094805003020DCA22FE
:100EAE00900551EEF0A3EFF0E4A3F0A3F0E490056B
:100EBE0055F0A3F0E4900557F0A3F0900557E0FE2F
:100ECE00A3E0FFC39440EE9400503E900553E0FC27
:100EDE00A3E0FDEF2DFFEE3CFE7C007DFF12000037
:100EEE00AF051213FD900583120000900555A3E087
:100EFE00FFA3A3E02FFF121281900558E02403F008
:100F0E00900557E03400F080B212170A9005511286
:100F1E0015C8E4900557F0A3F0900557E0FEA3E046
:100F2E00FFC39440EE9400502A900555A3E0FDEFC8
:100F3E002DFFC00790058312000000000000D007AF
:100F4E00121281900558E02403F0900557E034000A
:100F5E00F080C6900556E004F07006900555E0044A
:100F6E00F0C3900556E09403900555E0648094809C
:100F7E005003020EC2900554E004F0700690055323
:100F8E00E004F0C3900554E09401900553E06480B2
:0A0F9E0094805003020EBB021530D0
:1013A900900559120000E490055FF0A3F090055FE5
:1013B900F0A3F090055FE0FEA3E0FFC39440EE9434
:1013C90000502EC007900559E0FCA3E0FDA3E0FE04
:1013D900A3E0FF900583120000D0071212811217B3
:1013E9000A900560E004F070CA90055FE004F0809F
:0413F900C2021530E7
:10149B007F2D7E001212097F287E0012118C7BFF9C
:1014AB00E4FDFF12135F120DB4E4FB7DFFFF12137B
:1014BB005F120DB4E4FBFD7FFF12135F120DB47FBF
:1014CB00287E00120EAE90055DE4F0A374FFF0FFD2
:0B14DB007E007D007C001213A980B58C
:10144F009005A0EEF0A3EFF0E4900581F0FB7DFF97
:10145F001214E67FC81216669005A0E0FEA3E0FF07
:10146F0090058174FFF0FBFD1214E67FC81216661B
:10147F009005A0E0FEA3E0FF90058174FFF0E4FB70
:0C148F00FD1214E67FC81216660215302C
:100BA000E490058EF0A3F0C390058FE094289005A3
:100BB0008EE0648094804003020C5CE490058CF02D
:100BC000A3F090058CE0FAA3E0FBC39408EA6480EC
:100BD00094805077A3E0FEA3E07806C333CE33CEF3
:100BE000D8F9FF7C007D05120000EB2FFBE4FDFF30
:100BF00012135F90058812000090058CA3E0FF128D
:100C000012E790058EE0FEA3E07806C333CE33CE24
:100C1000D8F9FF7C007D0512000090058CA3E02F21
:100C2000FBE4FDFF12135F90058812000090058C15
:100C3000A3E075F008A4FF1212E790058DE004F020
:100C4000708090058CE004F0020BC290058FE024C8
:100C500008F090058EE03400F0020BA7E490058CBC
:100C6000F0A3F090058CE0FEA3E0FFC39408EE64CF
:100C7000809480503CC0079005881200000000005E
:100C800000D0071212E790058CA3E075F008A4FFCE
:100C9000C00790058812000000000000D007121263
:040CA000E790058D47
:0E0CA400E004F070BA90058CE004F080B222FB
:100A7A00E4900592F0A3F0C3900593E094289005C2
:100A8A0092E0648094804003020B43E4900590F066
:100A9A00A3F0900590E0FAA3E0FBC39408EA64800F
:100AAA0094804003020B32A3E0FEA3E07806C3332E
:100ABA00CE33CED8F9FF7C007D05120000EB2FFF64
:100ACA00E4FBFD12135F900588120000900590A3C5
:100ADA00E0FFC374079FFF1212E7900592E0FEA39E
:100AEA00E07806C333CE33CED8F9FF7C007D0512F9
:100AFA000000900590A3E02FFFE4FBFD12135F9026
:100B0A000588120000900590A3E075F008A4240758
:100B1A00FF1212E7900591E004F06003020A9C902C
:100B2A000590E004F0020A9C900593E02408F090F6
:100B3A000592E03400F0020A81E4900590F0A3F0F7
:100B4A00900590E0FEA3E0FFC39408EE64809480D1
:100B5A005043C374079FFFC0079005881200000026
:0B0B6A00000000D0071212E790059079
:100B7500A3E075F008A42407FFC0079005881200BC
:100B85000000000000D0071212E7900591E004F084
:0B0B950070B3900590E004F080AB22EC
:10095200E4900596F0A3F0C3900597E094289005E3
:1009620096E0648094804003020A1BE4900594F0B0
:10097200A3F0900594E0FAA3E0FBC39408EA648034
:1009820094804003020A0AA3E0FEA3E07806C33380
:10099200CE33CED8F9FF7C007D05120000EB2FFD8F
:1009A200E4FBFF12135F900588120000900594A3E8
:1009B200E02438FF1212E7900596E0FEA3E07806E5
:1009C200C333CE33CED8F9FF7C007D0512000090F0
:1009D2000594A3E02FFDE4FBFF12135F900588123C
:1009E2000000900594A3E0FFC374079F75F008A46C
:1009F200FF1212E7900595E004F06003020974907B
:100A02000594E004F0020974900597E02408F09040
:100A12000596E03400F0020959E4900594F0A3F041
:100A2200900594E0FEA3E0FFC39408EE64809480F6
:100A32005045EF2438FFC0079005881200000000DF
:0B0A42000000D0071212E7900594A3FB
:100A4D00E0FFC374079F75F008A4FFC007900588E9
:100A5D0012000000000000D0071212E7900595E08B
:0D0A6D0004F070B1900594E004F080A9221F
:100CB200E490059AF0A3F0C390059BE09428900578
:100CC2009AE0648094804003020D55E4900598F008
:100CD200A3F090059AE0FEA3E07806C333CE33CEAC
:100CE200D8F912134D900588120000900598A3E0E0
:100CF200FFC3743F9FFF1212E790059AE0FEA3E044
:100D02007806C333CE33CED8F912134D900588122C
:100D12000000900598A3E0F40475F008A4243FFFB6
:100D22001212E7900599E004F07006900598E0042D
:100D3200F0C3900599E09408900598E0648094804F
:100D4200409090059BE02408F090059AE03400F072
:100D5200020CB9E4900598F0A3F0900598E0FEA388
:100D6200E0FFC39408EE648094805045C3743F9FB3
:100D7200FFC00790058812000000000000D0071293
:100D820012E7900598A3E0F40475F008A4243FFF4D
:100D9200C00790058812000000000000D007121260
:100DA200E7900599E004F07006900598E004F08061
:020DB200A92274
:0F16B3001200007C007D07120000AE04AF05227C
:10068300E4900563F0A3F01216B3EF2402FFE43EF7
:10069300900561F0A3EFF0E4900565F0A3F09005F9
:1006A30065E0FEA3E0FFC39408EE648094804003FA
:1006B300020800C374079FFFE49EFEEF7803C33371
:1006C300CE33CED8F9FF900564E02FFF900563E0A9
:1006D3003E900567F0A3EFF0900562E024FFFF90E2
:1006E3000561E034FFFE900565F0A3EFF04E601363
:1006F300A3E0FEA3E0FF900581748FF07B2B7D0EBA
:100703000207EC900561E0FEA3E0FFC3900566E0FD
:100713009FEE6480F8900565E0648098401390052F
:1007230067E0FEA3E0FF90058174FFF0FBFD020785
:10073300EC900565E0FEA3E0FFEE60030207EFEF38
:10074300B4070040030207EF900752F8282873020A
:10075300076702077B02078E0207A20207B502079B
:0B076300C80207DC900567E0FEA3E081
:10076E00FF90058174DBF0E4FB7DDB807190056703
:10077E00E0FEA3E0FF90058174FFF0E4FBFD805ED8
:10078E00900567E0FEA3E0FF90058174FEF07BEA22
:10079E007D74804A900567E0FEA3E0FFE49005813A
:1007AE00F07BFF7D808037900567E0FEA3E0FFE4DD
:1007BE00900581F07B997DFF8024900567E0FEA374
:1007CE00E0FF9005817442F07BFF7DFB8010900569
:1007DE0067E0FEA3E0FFE4900581F0FB7DFF1214BD
:1007EE00E6900566E004F07006900565E004F00200
:1007FE0006A1900564E004F07006900563E004F035
:10080E00C3900564E09408900563E0648094805082
:05081E000302068A221E
:10110D00900569ECF0A3EDF0AC07E4120000C0040B
:10111D00C005C006C007900569E0FCA3E0FDE41220
:10112D000000A804A905AA06AB07D007D006D00574
:10113D00D00412000090056D120000E490056BF0D4
:10114D00A3F0900569E0FEA3E0FFC390056CE09F5E
:10115D0090056BE09E502712068390056DE0FCA371
:10116D00E0FDA3E0FEA3E0FF12000012166690055D
:0F117D006CE004F070CC90056BE004F080C422AD
:10082300900000EFF0A3ECF0A3EDF078057C007DE1
:10083300017BFF7A0079037E017F801200007885B7
:100843007C017D017BFF7A0179837E017F80120029
:100853000078057C037D017BFF7A0379037E017FAA
:1008630080120000E4900003F0A3F0900003E0FE88
:10087300A3E0FFC3943FEE64809480400302094FDA
:10088300E4900581F0FBFD1214E6900003E0FCA365
:10089300E0FDFFAE04C006C007900001E0FEA3E048
:1008A3007806C333CE33CED8F92405F58274003EDF
:1008B300F583E5822DF582E5833CF583E0FD900029
:1008C30001E0FEA3E07806C333CE33CED8F9248506
:1008D300F58274013EF583C083C082900003E0FE7D
:1008E300A3E0D082D0832582F582E5833EF583E0C1
:1008F300FB900001E0FEA3E07806C333CE33CED8ED
:10090300F92405F58274033EF583C083C082900009
:0209130003E0FF
:10091500FEA3E0D082D0832582F582E5833EF58370
:10092500E0900581F0D007D0061214E6900000E0B3
:10093500FF7E001215CD900004E004F0600302086C
:0D0945006E900003E004F002086E02153011
:10048300EFB440004003020682900493F8282873D7
:1004930002055302055602055802055A02055C027D
:1004A300056002056202057602057802057B0205F6
:1004B3008002058502058A02058F020594020599CB
:1004C30002059C02059F0205A40205A90205AE02CE
:1004D30005B30205B80205BD0205C00205C4020545
:1004E300C90205CE0205D20205D60205DC0205E0EB
:1004F3000205E60205E90205ED0205F30205F7022E
:1005030005FF02060702060B020613020615020682
:100513001902061D02062102062502062902062DDE
:1005230002062F02063602063A02063E020642027F
:10053300064602064A02065102065802066C0206E5
:100543006C02065B02066302066C02066C02067FFF
:10055300020952800A8008806D7D01807880007BCB
:10056300FFE4FDFF12135F900549E4F0A3740AF062
:10057300020DBD806E02062F7F0902064C7F0A0220
:10058300064C7F0B02064C7F0C02064C7F0D0206C5
:100593004C7F0E02064C02065102062F7F11020603
:1005A3004C7F1202064C7F1302064C7F1402064C4A
:1005B3007F1502064C7F1602064C0206517D02800F
:1005C300147F1902064CE4FDFC80357D0180277DF4
:1005D3000280237D037C0080277F1E806C7D037C4B
:1005E30000801D020BA07F21805F7D047C008010B2
:0405F3007D05800200
:1005F7007D067C007F0A806A7D077C007F1480620D
:100607007F2680417D047C007F148056801A7F29D5
:1006170080337F2A802F7F2B802B7F2C80277F2D75
:1006270080237F2E801F80227F287E000212097F71
:100637003180127F32800E7F33800A7F3480067FBD
:100647003580027F367E0002144F7F287E00020E1F
:10065700AE020CB27D057C007F1480067D047C0011
:100667007F1402082390055DE4F0A374FFF0FF7E7A
:0C067700007D007C000213A9120A7A2208
:0816ED00E4FF0FEFB430FB2213
:0816F500E4FF0FEFB408FB2233
:10159F00AE07C2961216EDE4FDEE30E704D294804A
:1015AF0002C294D2971216F5C2971216F5EE25E0E5
:0915BF00FE0DEDB408E3C2942214
:1015EF00D2941216EDE4FEFDD2971216F5EE25E019
:1015FF00FE3094034401FEC2971216F50DEDB408A8
:06160F00E7C294AF0622C1
:0916E4007F1512159F1215EF226B
:10161500E4FDFCC3ED9FEC9E5015E4FBFA0BBB000B
:10162500010ABA01F8BB4FF50DBD00010C80E4229B
:0816FD008F993099FDC299227A
:10167B00120000FF600C1216FD740129F9E43AFA0E
:03168B0080EE22CC
:10164F00759850438E40538EFE53890F758B2075BE
:07165F008DFEC2ABD28E220A
:10166600E4FEEEC39F500D00007D167C80DCFEDD9F
:05167600FC0E80EE22D5
:1016350012164F1216E49005A3EFF01216FDE0FF07
:0A1645001204837F6412166680E928
:10168E009005A4EFF0EF7E08D2B73392B700C2B741
:03169E00DEF62253
:00000001FF
